:020000040000FA
:06000000A0EF00F0120069
:020006000000F8
:08000800060EF66E000EF76E05
:10001000000EF86E00010900F550656F0900F550FB
:10002000666F03E1656701D03DD00900F550606F50
:100030000900F550616F0900F550626F0900090071
:10004000F550E96E0900F550EA6E09000900090053
:10005000F550636F0900F550646F09000900F6CF91
:1000600067F0F7CF68F0F8CF69F060C0F6FF61C0C5
:10007000F7FF62C0F8FF0001635302E1645307E039
:100080000900F550EE6E6307F8E26407F9D767C020
:10009000F6FF68C0F7FF69C0F8FF00016507000EB2
:0600A000665BBFD71200F1
:0A00A600D9CFE6FFE1CFD9FF020E2B
:1000B000E126939A9580959283A01FD0817ADF6A7A
:1000C000DF50026E036AD890035004E6FA0E025C19
:1000D000000E035810E2010EDB6A4E0EF36E010EA5
:1000E000DBCFF4FFF350F45C04E213D8010EDB2AFB
:1000F000F4D7DF2AE5D7839201D08382DDD7020EC1
:10010000E15C02E2E16AE552E16EE552E7CFD9FF38
:100110001200450ED56ED668D58ED59EF29412008B
:10012000000EF36E00EE00F0080E01D81200EA6037
:1001300002D0EE6AFCD7F350E9601200EE6AFCD7F9
:1001400013EE00F023EE00F0F86A019C04EC00F0DE
:0C015000AEEC00F053EC00F0FBD7120006
:02015C0012008F
:00000001FF
