:020000040000FA
:06000000B8EF00F0120051
:020006000000F8
:08000800936A926A956A9490D4
:100010009492550E816E8068836E8B808282320E40
:10002000E66EE66A10D8E552E552AA0E816E806A45
:10003000836E8B908292320EE66EE66A04D8E552A9
:10004000E552E7D71200D9CFE6FFE1CFD9FF030E83
:10005000E126DE6ADD6ADECF00F0DDCF01F0FD0EC5
:10006000DBCF02F0FE0EDBCF03F00250005C03504A
:10007000015815E2020EDB6ADB50006E016AD8906F
:10008000015004E6A50E005C000E015803E2020ECA
:10009000DB2AF2D7DF2A010E01E3DB2ADCD7030ECD
:1000A000E15C02E2E16AE552E16EE552E7CFD9FF99
:0200B00012003C
:0E00B200060EF66E000EF76E000EF86E0001E0
:1000C0000900F550656F0900F550666F03E165673B
:1000D00001D03DD00900F550606F0900F550616F07
:1000E0000900F550626F09000900F550E96E09003A
:1000F000F550EA6E090009000900F550636F090028
:10010000F550646F09000900F6CF67F0F7CF68F08B
:10011000F8CF69F060C0F6FF61C0F7FF62C0F8FF7A
:100120000001635302E1645307E00900F550EE6EED
:100130006307F8E26407F9D767C0F6FF68C0F7FF06
:1001400069C0F8FF00016507000E665BBFD71200AB
:10015000000EF36E00EE00F0080E01D81200EA6007
:1001600002D0EE6AFCD7F350E9601200EE6AFCD7C9
:1001700013EE00F023EE00F0F86A059C59EC00F055
:0C018000C6EC00F004EC00F0FBD712000D
:02018C0012005F
:00000001FF
